:020000040800F2
:1000000028350020E9010008AD1D0008711A00081C
:10001000351D000841170008C369000800000000F2
:100020000000000000000000000000004364000821
:10003000A717000800000000DF160008D5350008EB
:10004000030200080302000803020008030200087C
:10005000030200080302000803020008030200086C
:10006000030200080302000803020008030200085C
:10007000030200080302000803020008030200084C
:10008000030200080302000803020008030200083C
:10009000030200080302000803020008030200082C
:1000A000030200080302000803020008030200081C
:1000B000030200088D650008B1650008030200080E
:1000C00003020008030200080302000803020008FC
:1000D00003020008C1660008656700080302000803
:1000E00003020008030200080302000800F002F8FF
:1000F00000F06AF80AA090E8000C82448344AAF158
:100100000107DA4501D100F05FF8AFF2090EBAE855
:100110000F0013F0010F18BFFB1A43F0010318473B
:10012000CC820000EC8200000A444FF0000C10F872
:10013000013B13F0070408BF10F8014B1D1108BF65
:1001400010F8015B641E05D010F8016B641E01F805
:10015000016BF9D113F0080F1EBF10F8014BAD1C55
:100160000C1B09D16D1E58BF01F801CBFAD505E073
:1001700014F8016B01F8016B6D1EF9D59142D6D3CD
:10018000704700000023002400250026103A28BFF5
:1001900078C1FBD8520728BF30C148BF0B607047F9
:1001A000662907F0CF87642900F09480002070470B
:1001B0001FB500F021FD04000020002107F0D6FB50
:1001C000E0601FBD10B510BD00F01BFE1146FFF72B
:1001D000EFFF07F04DF900F039FE03B4FFF7F2FF2F
:1001E00003BC00F003FD00000948804709480047B0
:1001F000FEE7FEE7FEE7FEE7FEE7FEE7FEE7FEE7D7
:10020000FEE7FEE704480549054A064B7047000033
:100210002D650008ED000008282F0020283500205B
:10022000283100202831002072B6704762B670472E
:10023000EFF3108072B6704780F31088704730BFBC
:10024000704720BF7047B0FA80F0704790FAA0F076
:10025000B0FA80F0704790FAA0F070470FB41CB568
:10026000074B06AA7B4469460090059800F05BFCAA
:100270000020694600F06AFC1CBC5DF814FB00001D
:10028000E508000070B5044685690068C10601D51F
:10029000302600E02026C00707D070BDD4E9012138
:1002A00030469047206A401C20626D1EF6D570BD16
:1002B00070B5044685690078C00707D170BDD4E9E0
:1002C000012120209047206A401C20626D1EF6D537
:1002D00070BD00002DE9F041064600241068752924
:1002E000314616A510D0AFF30080002802DA404254
:1002F00013A507E031688A0701D512A502E0490776
:1003000004D511A5012401E0AFF3008000210A22E9
:1003100006F1240709E0B0FBF2FCB0FBF2F302FBAC
:100320001C00303078541846491C0028F3D123466D
:100330002A463046BDE8F04100F08AB900000000CE
:100340002D0000002B000000200000002DE9F047E8
:100350004FF0000A89460446C0F820A02046E16814
:100360008847002876D0252806D0D4E90121904777
:10037000206A401C2062F1E7E1682046002588479A
:10038000C4F81CA006460027C4F818A02A2E09D0DD
:10039000304606F06BFC38B304EB8708303EC8F8F3
:1003A000186019E059F8041B204604EB870291619C
:1003B000E1688847012F064618D1E069002820DA55
:1003C00025F020051DE0D8F8180000EB800006EBB2
:1003D00040003038C8F818002046E16888470646D3
:1003E00006F044FC0028EED1012F0AD02E2E08D1B1
:1003F0002046E16888477F1C0646022F45F020050D
:10040000C4DBA069002803DA404245F00105A06181
:10041000E80701D025F01005B6B1A6F14100192872
:1004200002D8203645F400654A463146204625600C
:100430004D46FFF7B5FE58B1012806D0ED1D25F059
:10044000070000F1080989E704E005F1040985E7E0
:1004500030468AE7206ABDE8F08700000EB5054601
:1004600014460E4613A000F07EFB284600F07BFBEE
:1004700016A000F078FB304600F075FB15A000F0E8
:1004800072FB00218DF80B100A210DF10A008DF886
:100490000A1008E094FBF1F201FB124294FBF1F424
:1004A000303200F8012D002CF4DC00F05CFB00F091
:1004B00052FB00002A2A2A20617373657274696FE7
:1004C0006E206661696C65643A2000002C206669C4
:1004D0006C6520002C206C696E65200040EA0103E9
:1004E00070B59B072ED14FF00136042A2AD308C8D5
:1004F00010C99D1B9D43121F15EAC61517D0D8B20F
:10050000E1B2401A50EA056110D198B2A1B2401A86
:1005100050EA05410AD123F07F4024F07F41401A80
:1005200050EA052102D1180EA0EB146070BDA34261
:10053000DBD018BA21BA884201D9012070BD4FF032
:10054000FF3070BD0AB9002070BD10F8013B11F8F2
:10055000014B63B1A3420AD1521E08D010F8013BEF
:1005600011F8014B1BB1A34201D1521EEDD1181B52
:1005700070BD032A40F2308010F0030C00F01580AB
:1005800011F8013BBCF1020F624498BF11F801CB96
:1005900000F8013B38BF11F8013BA2F1040298BFFB
:1005A00000F801CB38BF00F8013B11F0030300F065
:1005B000E482083AC0F0088051F8043B083A51F848
:1005C00004CBA0E80810F5E7121D5CBF51F8043B0E
:1005D00040F8043BAFF30080D20724BF11F8013B81
:1005E00011F801CB48BF11F8012B24BF00F8013BE3
:1005F00000F801CB48BF00F8012B70474FF0000214
:1006000000B5134694469646203922BFA0E80C5008
:10061000A0E80C50B1F12001BFF4F7AF090728BFE3
:10062000A0E80C5048BF0CC05DF804EB890028BF5F
:1006300040F8042B08BF704748BF20F8022B11F088
:10064000804F18BF00F8012B704770477047704704
:100650002DE9F0470D4699469246044600F12408DC
:100660000168880604D5E06921F01001216000E0EE
:100670000120A84201DD471B00E00027A1697A198B
:1006800002EB0900081AA0612078C00602D42046B7
:10069000FFF7F8FD002608E0D4E901211AF806006A
:1006A0009047206A401C761C20624E45F4DB20787F
:1006B000C0060AD52046FFF7E5FD06E0D4E9012192
:1006C00030209047206A401C2062381EA7F10107A5
:1006D000F4DC07E0D4E9012118F805009047206A0E
:1006E000401C2062281EA5F10105F3DC2046FFF71F
:1006F000DFFD2078000602D50220BDE8F08701204A
:10070000FBE770472DE9FF4F0C461E464FF0FF37C1
:100710008BB0D2E90001DDF860800A908A46C1F30F
:100720000A5505B93D46002108464FF00000BAF1D0
:10073000000F00F4400005DA00EB80004FF44001A8
:1007400001EA50004FEA9059B9F1010F00DDB946B6
:100750000A9850EA4A000ED044F61050A5F2FF3530
:1007600045432F14B8F1000F1ED07542291E1EDD1F
:10077000C9F100021CE0B8F1010F4FF0000001D0F8
:10078000302103E0F24305E02154401CB042FBDB82
:1007900030460022002121540B99C1F80880C1E99C
:1007A00000200FB0BDE8F08FBD1B6D1CDEE74A4690
:1007B00000DA694206A800F0A9FA06AB93E8070040
:1007C00003AB83E8070050460A9900F0BCFB8DE8B4
:1007D0000700A0F500501F3800900398002D09DD98
:1007E00042F21F014A46084403A90390684600F0FC
:1007F0001BFE08E0A0F500504A461F3803A90390ED
:10080000684600F025FE8DE807000004000C03D0C8
:100810004FF0FF30410800E01046B8F1000F03D060
:100820000022009215461EE0751E05D400F0E8F97E
:10083000303262556D1EF9D5B3460122084302D00D
:1008400000227F1C04E02078302801D100227F1E86
:10085000002A099786D01DE0112D07DA00F0D0F9A3
:10086000303262556D1C50EA0102F5D1084302D0C6
:100870000098C8B10EE00021681E05E0235C625CB0
:1008800063542254401E491C8142F7DBAB46A81B2F
:10089000401E0990002004F80B000B98099AC0F83C
:1008A0000880C0E9002B7CE711264FF0000859E7CB
:1008B0002DE9F04F88460446D21D22F0070191B081
:1008C000D1E90001CDE90A0106F0BCF902460B9816
:1008D000C00F01D02D2007E02068810701D52B2013
:1008E00002E0202101EAC000032A099001D0072A72
:1008F00005DB03464146204600F0C8F90BE12078AD
:10090000800601D5E06900E00620B8F1650F814658
:1009100006D0B8F1660F18D0B8F1670F70D131E08A
:100920000020B9F1110F009001DB112301E009F162
:1009300001030AAA01A90CA8FFF7E4FEDDE90C7087
:10094000002609F10105834647E001204B4600904F
:100950004FF000470AAA01A90CA8FFF7D3FEDDE972
:100960000DB00C995D46002610B909F101000D1873
:10097000B9EB050003D4C0F1FF3609F10105A5EB81
:1009800009002BE0B9F1010F01DA4FF00109002055
:10099000B9F1110F0090484601DD112300E0034634
:1009A0000AAA01A90CA8FFF7ADFEDDE90C704D46BF
:1009B00000268346207800070AD4AB4500DA5D465E
:1009C00001A8012D04DD411911F8011C302907D0BF
:1009D0004F4502DA17F1040F04DA012082460FE0D6
:1009E0006D1EEEE7002F02DCED1B3E4403E0781C99
:1009F000A84200DD7D1CB81B00F1010A4FF0004742
:100A00002078000703D4AA4501DB4FF0FF3A00210C
:100A1000B7F1004F0DF143088DF8431024D00220A8
:100A20002B23002F01DA7F422D230A21021EA0F181
:100A3000010000DC5FB197FBF1FC97FBF1F201FBD9
:100A40001C7C17460CF1300C08F801CDEEE7A8F13C
:100A5000010003702188090501D5452100E06521C9
:100A6000A0F1010800F8011C09980FA9A1EB0807E3
:100A7000FF1D00B10120411901EBEA70A169384462
:100A8000081A401EA0612078C00602D42046FFF755
:100A9000F9FB099828B1D4E901219047206A401C4C
:100AA00020622078C00622D52046FFF7EBFB1EE02F
:100AB000002E04DBB34502DD01A8805D00E030209C
:100AC000D4E901219047206A401C2062761CAAF1DB
:100AD00001005FEA000A0AD100F08EF8C0680168E0
:100AE000405CD4E901219047206A401C2062281E06
:100AF000A5F10105DCDC07E0D4E9012118F8010BC0
:100B00009047206A401C2062381EA7F10107F3DCE1
:100B10002046FFF7CDFB032011B043E601694A1CD4
:100B200002610878704700B58FB0CDE9013100212E
:100B3000059105497944CDE9031011466846FFF750
:100B400005FC0FB000BD0000E5FFFFFF0A6802F8DA
:100B5000010B0A607047002000F046F9FFF732FBF6
:100B6000012000F043F810B5044602E0641C00F0D8
:100B700036F820780028F9D110BD10B5203AC0F021
:100B80000B80B1E81850203AA0E81850B1E818508E
:100B9000A0E81850BFF4F5AF5FEA027C24BFB1E8CB
:100BA0001850A0E8185044BF18C918C0BDE810403C
:100BB0005FEA827C24BF51F8043B40F8043B08BF45
:100BC0007047D20728BF31F8023B48BF11F8012B0C
:100BD00028BF20F8023B48BF00F8012B704708B53A
:100BE00069468DF800000320ABBE08BD01491820FE
:100BF000ABBEFEE72600020000487047E82E00204A
:100C000030B5B0F10A024FEA900E71F100034EEADE
:100C1000817EB0EB0E0061EB91014FEA101E4EEAAF
:100C2000017E10EB0E0041EB11114FEA102E4EEA3F
:100C3000016E10EB0E0041EB11214FEA104E4EEA0F
:100C4000014E10EB0E0041EB1141401841F1000143
:100C50004FEAD00040EA41704FEAD10110EB800525
:100C60004FEA810444EA907444EB01046D1944EBAB
:100C70000404521BA3414FF0000348BF0A3200D5C1
:100C800030BD401C41F1000130BD00002DE9F041B4
:100C90001F46044603260168072A01F4006004DBAE
:100CA00008B116A505E016A503E008B115A500E0FA
:100CB00015A521F010002060A069C01EA0610FB131
:100CC000401EA0612046FFF7DDFA4FB1D4E90121B3
:100CD00038469047206A401C2062C01C206206E013
:100CE000206AFAE7D4E9012115F8010B9047761E36
:100CF000F8D22046FFF7DCFABDE8F0814E414E0005
:100D00006E616E00494E4600696E66002DE9F0473F
:100D1000814616468AB0334878440DC88DE80D00E8
:100D200030487844801C03AC0DC884E80D0041F6BF
:100D30009B300844372190FBF1F290FBF1F5A5F1CF
:100D4000800501FB12041B3C02D56442012000E037
:100D50000020DFF890A080460027FA44AAF1BE0ADE
:100D60000DE0E00709D03246684607EB47010AEB81
:100D7000810100F06DFB8DE8070064107F1C002CE2
:100D8000EFD1184F7F44AC3F18E0E80714D007EBD1
:100D900004100DF1180A90E80E008AE80E00C068F1
:100DA000F04201D198190890324606A903A800F034
:100DB0004FFB03AB83E807006D10641C002DE4D1EA
:100DC00032466946B8F1000F03A802D000F02CFBB0
:100DD00001E000F03DFBC9E90001C9F808200AB0B4
:100DE000BDE8F087B876000010B500F03BF8BDE82C
:100DF000104000F031B8000000487047C82E0020B5
:100E000070477546FFF7F8FFAE4605006946534642
:100E100020F00700854618B020B5FFF7F3F9BDE8CC
:100E200020404FF000064FF000074FF000084FF051
:100E3000000B21F00701AC46ACE8C009ACE8C009E2
:100E4000ACE8C009ACE8C0098D4670470446AFF372
:100E500000802046FFF7C1F9002801D0FFF7C6BE89
:100E60007047000010B5002102A000F053F80120E7
:100E700010BD0000534947414252543A2041626E2E
:100E80006F726D616C207465726D696E6174696FEB
:100E90006E0000004FF0013C50F8042B51F8043B69
:100EA0009A4221D1A2EB0C03934313EACC1317D13E
:100EB00050F8042B51F8043B9A4215D1A2EB0C03D5
:100EC000934313EACC130BD150F8042B51F8043B95
:100ED0009A4209D1A2EB0C03934313EACC13DBD063
:100EE0004FF00000704700BFD01A01BAB1FA81F18B
:100EF00001F0180122FA01F0CB40C1F12001DBB270
:100F0000C0B2C01A2CFA01F3D11A914311EAC311ED
:100F1000E6D1704770B505460C460A2000E06D1C0E
:100F2000FFF75DFE35B128780028F8D102E0641C97
:100F3000FFF755FE14B120780028F8D1BDE87040C5
:100F40000A20FFF74CBE5FEA400C08BF91F0000F8B
:100F50004FEA8C234FEAC12243EA51514FEA1C5019
:100F600018BF00F5F0404FEA300018BF41F00041D3
:100F70005FEA6C5C00F02980BCF1FF3F08BF40F0E5
:100F800080407047130C06BF12044FF0100C4FF056
:100F9000000C130E04BF12020CF1080C130F04BF57
:100FA00012010CF1040C930F04BF92000CF1020C1F
:100FB000D30F04BF52000CF1010C11464FF0000298
:100FC000A0F11F00A0EB0C00704711F0004F08BF0C
:100FD000704731F000413FF4D5AF0B0C06BF090458
:100FE0004FF0100C4FF0000C0B0E04BF09020CF177
:100FF000080C0B0F04BF09010CF1040C8B0F04BF8C
:1010000089000CF1020CCB0F04BF49000CF1010C5C
:10101000CCF12003A0EB0C0022FA03F302FA0CF24D
:1010200041EA030100F10100704720F07F4C80EAA3
:10103000030023F07F47ACEB070303F57C5300F07C
:10104000004003F1FF032DE980494FEA154B09B435
:101050004FEA144325EA0B4E24EA03480FF2042614
:1010600006EB132749083E785FEA320203FB066766
:10107000C7F5000707FB06F64FEA54374FEAD64696
:1010800006F1020607FB066CCCF1005C4FEA1C4738
:101090002CEA074C07FB06F40CFB06F504EB15469F
:1010A0004FEA961634BF00204FF000404FEAD13788
:1010B00006FB07FC4FEA1C4C0CFB0BF7D21B03FB97
:1010C0000CF761EB07010CFB0EF7B0EB074072EB7E
:1010D00017420CFB08F734BFA2EB0742B2EB074202
:1010E00061EB17414FEA0C444FEA910706FB07FCFE
:1010F0004FEA1C4C0CFB0BF7B0EBC74072EB5732BE
:1011000003FB0CF734BFA2EBC742B2EBC74261EB63
:1011100057310CFB0EF7B0EBC70072EB57720CFBAC
:1011200008F734BFA2EBC702B2EBC70261EB5771FD
:10113000039F4FEA816141EA921104EBCC044FEA2C
:10114000D1374FEA826206FB07FC42EA90124FEA6F
:1011500080604FEA1C4C0CFB0BF7D21B03FB0CF717
:1011600061EB07010CFB0EF7B0EB074072EB174287
:101170000CFB08F734BFA2EB0742B2EB074261EB6E
:1011800017414FEA8C554FEA910704EB9C2406FB6C
:1011900007FC4FEA1C4C0CFB0BF7B0EBC74072EBA3
:1011A000573203FB0CF734BFA2EBC742B2EBC74286
:1011B00061EB57310CFB0EF7B0EBC70072EB5772C7
:1011C0000CFB08F734BFA2EBC702B2EBC70261EB1E
:1011D000577115EB4C254FEA816141EA92114FEAB4
:1011E00082624FEAD13742EA901206FB07FC44F1D3
:1011F00000044FEA80604FEA1C4C0CFB0BF7D21B3B
:1012000003FB0CF761EB07010CFB0EF7B0EB07409B
:1012100072EB17420CFB08F734BFA2EB0742B2EBAC
:10122000074261EB174115EB1C154FEA813141EA8A
:1012300092414FEA823242EA90424FEA80304FEACE
:101240000C7644F1000448EA03434EEA0B484FF0A1
:10125000000EB2EB080C71EB030724BF624639465F
:101260004EEB0E0E4FF0000B0018524149414BEB74
:101270000B0BB2EB080C71EB03077BF1000B24BFE7
:10128000624639464EEB0E0E4FF0000B00185241ED
:1012900049414BEB0B0BB2EB080C71EB03077BF1F5
:1012A000000B24BF624639464EEB0E0E51EA020790
:1012B00018BF46F0010616EB0E7655F1000254F108
:1012C000000103D5BDE88901BDE80088BDE88901BA
:1012D000BDE80048B619524141EB0101A3F10103F9
:1012E000704780807F7E7D7C7B7A79787776767593
:1012F0007473727171706F6E6E6D6C6C6B6A6A690B
:101300006868676666656464636362616160605FA4
:101310005F5E5E5D5D5C5C5B5B5A5A59595858571D
:101320005756565555555454535352525251515085
:1013300050504F4F4F4E4E4D4D4D4C4C4C4B4B4BD8
:101340004A4A4A494949484848474747474646461E
:101350004545454444444443434343424242424159
:101360004141002B26D4770021D01CB54FEA370726
:1013700003B44FF010004FF010014FF000000FBC0D
:10138000BDE810400BF1010BBBF1010F08BF5FEA94
:10139000170722BF12F1010211F101014FF00041C4
:1013A00043F1000300F0004043EA00007047F9D326
:1013B0005708DAE746EA064613F1400F4FEA1646A9
:1013C0001FDD13F1200FDFBF16430A460021203333
:1013D0005B42C8D0C3F1200746EA064602FA07F787
:1013E0004FEA164646EA0706C3F1200722FA03F23F
:1013F00001FA07F721FA03F14FF0000342EA07026E
:10140000B1E746EA020646EA06464FEA164646EACB
:101410000106BCBF46EA0646360C4FF000034FF00B
:1014200000024FF000019EE72DE9C048934630B41A
:1014300091E8380007C831EA400C48BF34EA430C51
:1014400003D5FFF7F2FDFFF78CFFF0BCBDE8008885
:101450002DE9C048934630B491E8380007C810F031
:10146000804F08BF13F0804F03D100F005F8FFF75D
:1014700078FFF0BCBDE8008820F07F4780EA0300D9
:1014800023F07F4C07EB0C03A3F57C5300F00040E6
:10149000A3F1FE0392F0000F00F0B38095F0000F6F
:1014A00000F077802DE901494FEA11404FEA1446D8
:1014B00021EA004800FB06FC24EA064708FB06F682
:1014C00007FB08F800FB07F718EB06484CEB164C37
:1014D0004FEA124B18EB07484FEA15464CEB174002
:1014E00022EA0B4E0BFB06FC25EA06470EFB06F62E
:1014F00007FB0EFE0BFB07F71EEB064E4CEB164CE4
:101500004FF000061EEB074E4CEB174B18EB0B0889
:1015100040F1000018EB0E0B58EB000840F1000002
:101520008F1A4FF000013CBFC943661B14BFB5EBD7
:10153000040C00213CBFC943F61B4FEA17444EEA96
:101540008E0E27EA04454FEA1C4704FB07622CEA8B
:10155000074C05FB07F70CFB05F604FB0CFC16EB30
:10156000074642EB174216EB0C4642EB1C421BEBC4
:10157000060658EB0202414146EA9E0601D5BDE847
:101580000189B619524141EB0101A3F10103BDE804
:1015900001894FEA14454FEA114724EA054621EA3A
:1015A000074C05FB07F406FB07F70CFB06F105FBF0
:1015B0000CFC11EB074144EB17444FEA124711EBC7
:1015C0000C4144EB1C4422EA074C05FB07F206FBE6
:1015D00007F70CFB06F605FB0CFC16EB074642EB87
:1015E000174216EB0C4642EB1C456A1854F10001F9
:1015F00048BF7047B619524141EB0101A3F1010305
:10160000704795F0000F37D04FEA11424FEA144768
:1016100021EA024624EA074C02FB07F106FB07F722
:101620000CFB06F402FB0CFC14EB074441EB1741E6
:101630004FEA154714EB0C4441EB1C4125EA074CDB
:1016400002FB07F506FB07F70CFB06F602FB0CFC9A
:1016500016EB074645EB174516EB0C4645EB1C42CF
:10166000121951F1000148BF7047B619524141EBC0
:101670000101A3F1010370474FEA14454FEA1147F6
:1016800024EA054621EA074C05FB07F106FB07F7AC
:101690000CFB06F24FF0000605FB0CFC12EB0742B8
:1016A00041EB174112EB0C4251EB1C4148BF704714
:1016B000921841EB0101A3F10103704718484FF064
:1016C000FF010170002080F309881648016881F34A
:1016D000088815484FF08051016062B6FEE772B687
:1016E000EFF3098028B1203880E8F00F0F4909682E
:1016F000086000B50E4880475DF804EB0D480E49C0
:101700000A78027009480D490A680260106890E87A
:10171000F00F203080F309884EF0040E62B6704757
:1017200022ED00E04C00002004ED00E0E800002085
:10173000313200088600002087000020EC000020E5
:1017400000BFFEE710B500F01FF800F019F810BD5B
:1017500010B5002400BF00BFFEF76AFD044600BFBD
:1017600000BF1021054800F0E7FA00BF00BF204687
:10177000FEF762FD00BF00BF10BD00006E15002027
:1017800010B5FFF7E5FF10BD10B500200249086055
:1017900000F004F810BD00004800002070474FF032
:1017A000E02080697047704730B5044604254FF447
:1017B000302000F06FF80546042D17D10C48006961
:1017C00040F002000A49086108464461006940F09F
:1017D000400008614FF4302000F05CF805460448F2
:1017E000006941F6FD71084001490861284630BD95
:1017F0000020024004200B49C96801F0010109B131
:1018000001200EE00749C96801F0040109B1022076
:1018100007E00449C96801F0100109B1032000E0A4
:1018200004207047002002400348006940F0800017
:1018300001490861704700000020024070B504466D
:101840000D460426F00200F025F80646042E11D1BC
:101850000948006940F00100074908612580F0024D
:1018600000F018F806460448006941F6FE71084089
:1018700001490861304670BD00200240024803491A
:1018800048600348486070472301674500200240D4
:10189000AB89EFCD00B502460423FFF7ABFF03464B
:1018A00003E0FFF7A7FF0346521E012B01D1002AD8
:1018B000F7D102B90523184600BD2DE9F0410246D3
:1018C00000250026002000230024002791F803C0F3
:1018D0000CF00F0591F803C00CF0100CBCF1000FD8
:1018E00003D091F802C04CEA050591F800C0BCF1A4
:1018F000000F31D0146800202BE04FF0010C0CFADF
:1019000000F3B1F800C00CEA03069E4220D1830028
:101910004FF00F0C0CFA03F7BC4305FA03FC4CEA3A
:10192000040491F803C0BCF1280F06D14FF0010C5C
:101930000CFA00FCC2F814C00AE091F803C0BCF134
:10194000480F05D14FF0010C0CFA00FCC2F810C092
:10195000401C0828D1D31460B1F800C0BCF1FF0FBF
:1019600034DD546800202EE000F1080C4FF001082F
:1019700008FA0CF3B1F800C00CEA03069E4221D12C
:1019800083004FF00F0C0CFA03F7BC4305FA03FC7D
:101990004CEA040491F803C0BCF1280F05D100F112
:1019A000080C08FA0CF8C2F8148091F803C0BCF1D6
:1019B000480F07D100F1080C4FF0010808FA0CF8A5
:1019C000C2F81080401C0828CED35460BDE8F081D6
:1019D00041617047016170472DE9FF5F4FF0000AD8
:1019E000D34600F033F900F055F9032000F0F6F883
:1019F00000F076F903A800214FF4C8730A46CDE938
:101A00000010084601F0CAFC012000F0B1F88DF882
:101A10000800012000F0ACF88DF80900012000F06A
:101A2000A7F88DF80A009DF809009DF8081001F04C
:101A30003F0140EA012A504606F088F88046084AED
:101A4000084B06F097F80646074A084B06F090F94F
:101A5000044605F0A1FF8346584604B0BDE8F09F58
:101A60007B14AE47E17A843F9A99999999D943407A
:101A700000BFFEE700B500200E4908600E48006870
:101A800020F00F000C4908600846006840F0030091
:101A9000086000200949C1F8A00105F02BF90120D8
:101AA0000449086005F026F900200549C1F88401C1
:101AB00000BD000084012142040C0140008021424D
:101AC0000000214208B501210C2004F0A5FB0220F2
:101AD000ADF8000010208DF8030003208DF80200FF
:101AE00069460D48FFF7E9FE4FF48070ADF800003D
:101AF00010208DF8030003208DF802006946074886
:101B0000FFF7DBFE02210448FFF764FF4FF480710A
:101B10000248FFF75FFF08BD00080140000C0140CC
:101B200000B500200E4908600E48006820F00F0044
:101B30000C4908600846006840F003000860012076
:101B40000949C1F8A00105F0D5F801200449086051
:101B500005F0D0F800200549C1F8840100BD00005F
:101B600084012142040C01400080214200002142F6
:101B700010B5034600221548006820F00F001349F5
:101B800008600846006840F008000860002413E080
:101B900000200F49086005F0ADF801200D49C1F89B
:101BA00084015006020E0C48006808B1501CC2B2F5
:101BB00005F0A0F8601CC4B2082CE9DB13B9FFF7EC
:101BC000AFFF01E0FFF756FF104610BD040C0140C7
:101BD00084012142000021422081214200B50246B9
:101BE0001648006820F00F00144908600846006895
:101BF00040F003000860002011490860002317E04E
:101C0000D00918B101200F49086002E000200D49F9
:101C100008605006020E05F06DF8012008490860C2
:101C200005F068F800200849C1F88401581CC3B2C7
:101C3000082BE5DB01200349086000BD040C0140CE
:101C400084012142A08121420000214200B50E48BA
:101C5000006820F00F000C4908600846006840F05A
:101C6000030008600120094908600949C1F884019E
:101C700005F040F800200549086005F03BF8002019
:101C80000349C1F8840100BD040C0140A081214238
:101C90000000214200B50F48006820F00F000D49F8
:101CA00008600846006840F00300086000200A4908
:101CB00008600A49C1F8A00105F01CF80120064996
:101CC000086005F017F801200449C1F8A00105F0EB
:101CD00011F800BD040C0140840121420080214222
:101CE00000B500221048006820F00F000E4908607F
:101CF0000846006840F00800086001200B490860B1
:101D000004F0F8FF07E0501CC2B2FA2A03DDFFF727
:101D1000C1FF012000BD064800680028F3D1034937
:101D2000086000BFF6E70000040C01408401214276
:101D30002081214200BFFEE730B505460C46224611
:101D40000021284600F001F830BD2DE9F04103469E
:101D50000C4617460FB9BDE8F08103B9FBE7002533
:101D6000002202E02D022543521C042AFAD33846F1
:101D700003F0030C1946BCF1000F08D0624603E0E3
:101D800001F8014B401E521C08B1042AF8D30E463C
:101D900001E020C6001F0428FBD2314602E001F812
:101DA000014B401E0028FAD100BFD4E77047000065
:101DB00070B5002100230F22C47804B3154C2468A9
:101DC00004F4E064C4F5E064210AC1F10403CA40EC
:101DD000447804FA03F184781440214309010E4C3D
:101DE0000678A155047804F01F050124AC4005785D
:101DF0006D11AD0005F1E025C5F8004109E004785A
:101E000004F01F050124AC40044D0678761145F816
:101E1000264070BD0CED00E000E400E080E100E051
:101E200002490143024A1160704700000000FA05B0
:101E30000CED00E015481648164817481748184892
:101E40001848194819481A481A481B481B481C4882
:101E50001C481D481D481E481E481F481F48204852
:101E60002048214821482248224823482348244822
:101E700024482548254826482648274827482848F2
:101E800028482948294800BF70470000E881000819
:101E9000488100084C8100085081000854810008E6
:101EA000588100085C810008608100086481000896
:101EB000688100086C810008708100087481000846
:101EC000788100087C8100088081000884810008F6
:101ED000888100088C8100089081000894810008A6
:101EE000988100089C810008A0810008A481000856
:101EF000A8810008AC810008B0810008B481000806
:101F0000B8810008BC810008C0810008C4810008B5
:101F1000C8810008CC810008D0810008D481000865
:101F2000D8810008DC810008E0810008E481000815
:101F30007047000070B5044600F09AF800203E4952
:101F400008703E4908703E4908703E4908603E49A5
:101F500008603E4908703E4908703E4908703E4995
:101F600008703E4800680A21B0FBF1F03C49086067
:101F70003C48006858B13C48056845B13948066896
:101F800003E0761E002028602D1D002EF9D10020D0
:101F90003649087002F060FA02F040FB204601F07A
:101FA0000DFC208800B170BD204601F0CDFF2088D7
:101FB00000B1F8E7204601F0EFFF208800B1F2E71A
:101FC000204602F0BBF8208800B1ECE7204602F082
:101FD00073FA208800B1E6E7204602F083FC2088EF
:101FE00000B1E0E7204602F0A5FF208800B1DAE763
:101FF000204601F015FF208800B1D4E7204601F00B
:102000002DFD208800B1CEE7204603F003FF208895
:1020100000B1C8E7204602F0D1FE208800B1C2E737
:10202000204603F053FF208800B1BCE701F0EEFA30
:10203000FFF700FF00BFB6E758000020590000205E
:1020400092000020E8000020EC0000208600002024
:10205000870000208800002098000020A881000848
:10206000940000207881000874810008C6000020D8
:102070000A4A1168002002E0002204C1401C084AFC
:1020800012689042F8D3054A1268054B1B6802EBB0
:102090008302121F034B1A6070470000748100080E
:1020A000788100084C00002008480078012800D002
:1020B000704707480078FA2800DBF9E70448007801
:1020C000401C0349087000BFF2E7000059000020DF
:1020D0005800002010B500242E480078012800D0B8
:1020E00010BD00BFFEF7A4F8044600BF2A480078E0
:1020F00028B900BF2046FEF79FF800BFF0E726484A
:102100000078401E2449087008460078002805DD44
:1021100000BF2046FEF790F800BFE1E71F480078B7
:10212000002805DD00BF2046FEF786F800BFD7E790
:1021300002F07EF91A4908700846007800EB40006A
:10214000184951F8200018490860084600681749E6
:102150000968884205D100BF2046FEF76DF800BF30
:10216000BEE711480068D0F89000401C0E4909688D
:10217000C1F890000E480068401C0D4908604FF0FF
:1021800080500C49086000BF2046FEF755F800BF9C
:1021900000BFA5E759000020580000209200002051
:1021A000870000209C2A0020EC000020E80000208E
:1021B000BC00002004ED00E010B5002420480078A9
:1021C000002800DD10BD1F480078002800DDF9E779
:1021D00000BFFEF72DF8044600BF02F029F91A49A6
:1021E00008700846007800EB4000184951F82000BC
:1021F000174908600846006816490968884205D1F1
:1022000000BF2046FEF718F800BFDBE71048006863
:10221000D0F89000401C0E490968C1F890000E48A3
:102220000068401C0C4908604FF080500B49086062
:1022300000BF2046FEF700F800BF00BFC2E7000065
:102240005800002092000020870000209C2A0020D7
:10225000EC000020E8000020BC00002004ED00E0BD
:1022600070B50446002517480078002803DD46F6BF
:102270006250208070BD14480078012803D045F6D4
:1022800089602080F6E711480078FA2803DB45F2E0
:1022900009202080EEE700BF00BFFDF7C9FF05461B
:1022A00000BF00BF09480078401C0849087000BF03
:1022B00000BF2846FDF7C0FF00BF00BF0020208000
:1022C00000BFD7E7580000205900002092000020EE
:1022D0002DE9F04105460C461646002700BF00BF19
:1022E000FDF7A6FF074600BF00BF012D03D0002069
:1022F0000D49087002E001200B49087014B10B4829
:10230000046006E00A4800680A21B0FBF1F00749C2
:10231000086000BF00BF3846FDF78EFF00BF00BF5A
:1023200000203080BDE8F08198000020940000205B
:10233000A881000870B5044600251F4800780028D1
:1023400003DD46F66550208070BD1C4800780128EA
:1023500003D045F689602080F6E71948007818B95F
:1023600046F664502080EFE700BF00BFFDF760FF36
:10237000054600BF00BF12480078401E1049087093
:102380000846007800280ADD00BF00BF2846FDF798
:1023900053FF00BF00BF46F663502080D4E700BF64
:1023A00000BF2846FDF748FF00BF00BFFFF704FF4E
:1023B0000020208000BFC7E75800002059000020FF
:1023C000920000202DE9F04104460E4617461D46B6
:1023D0004FF0000826480078002804DD42F6E1604E
:1023E0002880BDE8F0811CB945F6C3502880F8E785
:1023F00000BF00BF00BFFDF71BFF804600BF00BF4E
:102400001C480078401C1B49087000BF00BF4046B4
:10241000FDF712FF00BF00BF00BF17482060276212
:1024200000206062666004F1080001F01BFF204696
:1024300002F040FA11480088401C1049088000BF93
:1024400000BF00BFFDF7F4FE804600BF00BF094893
:102450000078401E0749087000BF00BF4046FDF7E6
:10246000EBFE00BF00BF00BF0020288000BFB8E720
:10247000580000209200002053454D41A00000204C
:102480002DE9F04788B00646894690461C46109DC7
:102490004FF0000A6E480078002806DD46F2AE10C4
:1024A0002880002008B0BDE8F08726B945F6C35063
:1024B00028800020F6E7B8F1000F03D0B8F5004FF0
:1024C00002D100E000BF04E045F62560288000202E
:1024D000E8E700BF5F493068884204D045F6C45041
:1024E00028800020DEE70CB10020206000BF00BF84
:1024F000FDF79EFE824600BF00BF306A88B1306A99
:10250000401E30620CB1706A2060376A00BF00BFA5
:102510005046FDF791FE00BF00BF002028803846DE
:10252000C0E708F4004060B1376A00BF00BF504602
:10253000FDF782FE00BF00BF46F2B010288038468B
:10254000B0E74548007800280BDD00BF00BF5046CB
:10255000FDF772FE00BF00BF46F6635028800020E2
:10256000A0E700BF3C480078401C3B49087000BF12
:1025700000BF5046FDF760FE00BF00BF00BF4B46E6
:1025800006223146684601F0E5FD00BF00BF00BFEE
:10259000FDF74EFE824600BF00BF2F480078401E68
:1025A0002D49087000BF00BF5046FDF745FE00BF33
:1025B00000BF00BFFFF700FE00BF00BFFDF738FE01
:1025C000824600BF00BF2548006890F8350030B152
:1025D00001280CD002281AD0032821D110E01CB108
:1025E0001E480068006C20600020288024E01CB198
:1025F0001A480068006C206046F2A91028801BE091
:102600000CB10020206047F2D920288014E01CB1D2
:1026100012480068006C206045F6C25028800BE02C
:1026200046F62E60288000BF00BF5046FDF704FE2E
:1026300000BF00BF002035E700BF376A00BF00BF02
:102640005046FDF7F9FD00BF00BF38462AE70000FD
:102650005800002053454D4192000020E800002022
:102660002DE9FF4105460F46144635B945F6C350DE
:102670002080002004B0BDE8F0814FB1B7F5007FA5
:1026800007D0B7F5004F05D0B7F5024F04D102E0EF
:1026900000BF00BF00BF04E045F625602080002099
:1026A000E8E700BF12492868884204D045F6C450C4
:1026B00020800020DEE7FFF772F806460D4800781C
:1026C00000280CDD0020034602462946CDE90176AC
:1026D00003940090064801F0F9F90020CAE7234668
:1026E00032463946284602F009F980464046C1E79D
:1026F00053454D415800002010B50446124800785B
:10270000E8B901F095FE11490870084600781049B3
:1027100008700E48007800EB40000E4951F8200088
:102720000D490860084600680C4908600120064908
:102730000870FEF7C3FF43F69920208002E045F6BB
:102740008A60208010BD0000590000208700002012
:10275000860000209C2A0020EC000020E8000020D9
:102760002DE9F04107464FF0000800BF00BFFDF71C
:102770005FFD804600BF00BF00203B4908603B4929
:1027800008803B4908803B4908603B4908603B4959
:1027900008603B49088100BF00BF4046FDF74CFD83
:1027A00000BF00BF00BF00BFFDF742FD804600BF75
:1027B00000BF3448046800BF00BF4046FDF73CFD41
:1027C00000BF00BF20E000BF00BFFDF731FD804625
:1027D00000BF00BF002044F8780F2063A061A082F2
:1027E000E0826062A062FEF7DAFF2062783C04F1CA
:1027F00064060020B081D4F8B84000BF00BF404656
:10280000FDF71AFD00BF00BF002CDCD100BF00BFE8
:10281000FDF70EFD804600BF00BF1B48056800BFE6
:1028200000BF4046FDF708FD00BF00BF12E000BF3B
:1028300000BFFDF7FDFC804600BF00BF05F120068C
:102840000020B081AD6900BF00BF4046FDF7F4FC39
:1028500000BF00BF002DEAD103F0B8F903F032FC4D
:1028600000203880BDE8F0816C0000206600002068
:10287000A6000020B8000020CC000020D8000020D6
:10288000902A0020C00000208C000020F8B50446EB
:1028900000266946324800F09BFCBDF8000018B1E4
:1028A000BDF800002080F8BD6A460021022000F03B
:1028B000E9FCBDF8000018B1BDF800002080F2E787
:1028C00000BF00BFFDF7B4FC064600BF00BF0020FC
:1028D0002449086000BF00BF3046FDF7ADFC00BFD3
:1028E00000BF00252048006820490968884205D9B2
:1028F0001D4800681D490968B0FBF1F525B91A4863
:1029000000680A21B0FBF1F56A460021284600F074
:10291000B9FC6946124800F047FABDF8000018B14A
:10292000BDF800002080BEE700BF00BFFDF780FCBF
:10293000064600BF00BF00200D4908600948006836
:102940000C49086001200C49087000BF00BF3046E8
:10295000FDF772FC00BF00BF0020208000BFA2E78F
:102960009C2D0020A8000020A8810008908100086C
:10297000B8000020AC000020B40000207047000028
:102980002DE9FF4F87B004469046DDE91BA5DDE940
:102990001496179F0020039087480078002805DDD3
:1029A00047F24A1028800BB0BDE8F08F1CB947F2FF
:1029B000AD102880F7E7B8F1000F03D147F24F10B0
:1029C0002880F0E71EB946F62F602880EBE77B48A9
:1029D0000068874203D246F630602880E3E7169805
:1029E000B84203D346F631602880DCE7B9F1200F06
:1029F00003D346F273202880D5E7B9F1000F06D142
:102A00006F48844203D046F273202880CBE7B9F1A7
:102A10001F0F06D16B48844203D046F273202880F2
:102A2000C1E7204602F096FA002028800AF0010053
:102A300090B10AF0020078B105960020069008E0F7
:102A40000021059801600598001D05900698401C1E
:102A500006900698B842F3D3169806EB80000490CF
:102A6000CDE9007A32464046049B0A9900F050FBBB
:102A70000590C4F828800A98E0620898206284F8DB
:102A80003790059820600498A0601998606519989F
:102A900018B94D480068A06501E01998A0651A981A
:102AA00060606662A763A4F83CA04FF0000B08E0EA
:102AB000002104F17C0040F82B100BF1010000F024
:102AC000FF0BBBF1000FF3D004F16400189901F083
:102AD000AFFA204600F082F800BF00BF00BFFDF74C
:102AE000A7FB039000BF00BF38480078401C37495F
:102AF000087000BF00BF0398FDF79EFB00BF00BF3A
:102B000000BF94F8370001F0B3FC204601F0CEFD81
:102B1000204602F0D5F92E480088401C2C49088038
:102B20002C48007801282DD000BF00BF00BFFDF762
:102B30007FFB039000BF00BF24480078401E23495C
:102B4000087008460078A0B923480088002809DDED
:102B500000BF00BF0398FDF76FFB00BF00BF01F08F
:102B600013FE0DE000BF00BF0398FDF765FB00BF3B
:102B700006E000BF00BF0398FDF75EFB00BF00BF8B
:102B800000BF10E700BF00BF00BFFDF751FB03907F
:102B900000BF00BF0D480078401E0C49087000BF00
:102BA00000BF0398FDF748FB00BF00BF00BFFFF761
:102BB00003FB00BFF7E6000058000020A4810008D6
:102BC000D02900201029002094000020920000202D
:102BD000C40000205900002064000020704700005D
:102BE00070B504460D46002667480078002803DDCE
:102BF00047F24E10288070BD6448844203D147F2EA
:102C00004C102880F7E76248844203D147F24D1008
:102C10002880F0E77CB900BF00BFFDF709FB06463E
:102C200000BF00BF5B48046800BF00BF3046FDF72F
:102C300003FB00BF00BF00BF00BF00BFFDF7F8FAF5
:102C4000064600BF00BF54480078401C5249087037
:102C500000BF00BF3046FDF7EFFA00BF00BF00BF66
:102C600094F8360008282DD2DFE800F004090E1091
:102C7000080A0F11204601F059FD54E053E000BF4F
:102C8000204602F087FF4EE000BF00BF00BF204695
:102C900002F080FF94F83400082810D2DFE800F03A
:102CA00004070508090A0B0600BF00BF08E000BFC3
:102CB00000BF00BF00BF204601F00CFB00E000BFDA
:102CC00000BF30E000BF00BF00BFFDF7B1FA06460D
:102CD00000BF00BF30480078401E2F4908700846EA
:102CE0000078A0B92D480088002809DD00BF00BF8A
:102CF0003046FDF7A1FA00BF00BF01F045FD0DE031
:102D000000BF00BF3046FDF797FA00BF06E000BFE6
:102D100000BF3046FDF790FA00BF00BF00BF46F687
:102D20002D60288067E700BF04F1640001F05EF9C0
:102D3000204600F037F8204602F0DAF818480088FC
:102D4000401E17490880204602F004F9FF2084F84D
:102D5000360000BF00BF00BFFDF76AFA064600BF9D
:102D600000BF0D480078401E0B49087000BF00BF2F
:102D70003046FDF761FA00BF00BF00BF0020288089
:102D8000FFF71AFA00BF36E758000020102900208C
:102D9000D0290020E80000209200002064000020DC
:102DA000C4000020704700007FB504460D46002691
:102DB00000BF00BFFDF73CFA064600BF00BF1CB1D4
:102DC0001548006884420AD100BF00BF3046FDF7B5
:102DD00033FA00BF00BF47F2571028807FBD00BF05
:102DE00000BF3046FDF728FA00BF00BF0B4800784F
:102DF00000280BDD0020009001900346024621468A
:102E0000CDE90205064800F061FEE7E729462046C5
:102E100002F018FA00BFE1E7E800002058000020A7
:102E200054524553704700002DE9F04780460E4646
:102E300014461D464FF000097D480078002805DD46
:102E400046F2AE1028800020BDE8F0871EB1B6F52E
:102E5000004F02D100E000BF04E045F62560288065
:102E60000020F1E700BF0CB10020206000BF00BFD0
:102E7000FDF7DEF9814600BF00BF6E480068406C78
:102E8000A8B36C480068406C401E6A4909684864F1
:102E900068480068476C1CB166480068006C206098
:102EA000FEF77DFC63490968096C401A61490968AD
:102EB000C1F8A4005F480068D0F8A8005D4909681F
:102EC000D1F8A410884207D25A480068D0F8A4006C
:102ED00058490968C1F8A80000BF00BF4846FDF77F
:102EE000ABF900BF00BF002028803846ACE7FFE701
:102EF00006F4004058B100BF00BF4846FDF79CF9FA
:102F000000BF00BF46F2B010288000209CE74A486E
:102F1000007800280BDD00BF00BF4846FDF78CF9A4
:102F200000BF00BF46F66350288000208CE700BF3A
:102F300041480078401C4049087000BF00BF484627
:102F4000FDF77AF900BF00BF00BF4346072200210A
:102F5000084601F0FFF800BF00BF00BFFDF768F9A9
:102F6000814600BF00BF34480078401E32490870D7
:102F700000BF00BF4846FDF75FF900BF00BF00BFBC
:102F8000FFF71AF900BF00BFFDF752F9814600BFF5
:102F900000BF2848006890F8350020B1012826D0ED
:102FA000032834D12CE0FCB122480068006C20607A
:102FB000FEF7F5FB1F490968096C401A1D490968AD
:102FC000C1F8A4001B480068D0F8A8001949096896
:102FD000D1F8A410884207D216480068D0F8A4009F
:102FE00014490968C1F8A8000020288013E01CB12A
:102FF00010480068006C206046F2A91028800AE0A2
:103000000CB10020206047F2D920288003E046F66A
:103010002E60288000BF00BF06480068476C00BFD4
:1030200000BF4846FDF708F900BF00BF38460BE770
:1030300058000020E8000020920000202DE9F04711
:1030400005460E4617461C464FF0000A2E480078EB
:10305000002804DD47F259102080BDE8F0871EB932
:1030600046F2D5202080F8E71FB946F2D52020800F
:10307000F3E700BF00BFFDF7DBF8824600BF00BFEB
:103080000DB922480568286868B900BF00BF5046DE
:10309000FDF7D2F800BF00BF00203060386047F273
:1030A00052102080D9E795F83C0000F0010068B983
:1030B00000BF00BF5046FDF7BFF800BF00BF0020B3
:1030C0003060386047F254102080C6E700BF00BF70
:1030D0005046FDF7B1F800BF00BF4FF00008D5F82B
:1030E000249003E009F1040908F10108D9F800006F
:1030F0000028F7D0C6F80080A86BA0EB0800386065
:103100000020208000BFA8E758000020E800002031
:10311000F0B50446DDE9055602EB85004FF0807CF2
:10312000071F3846C7F800C0071F38463C60DFF865
:103130009CC0071F3846C7F800C04FF0123C071F5D
:103140003846C7F800C04FF0033C071F3846C7F8A1
:1031500000C04FF0023C071F3846C7F800C0071FE9
:1031600038463B60071F384639604FF0113C071F57
:103170003846C7F800C04FF0103C071F3846C7F864
:1031800000C04FF0093C071F3846C7F800C04FF099
:10319000083C071F3846C7F800C04FF0073C071F20
:1031A0003846C7F800C04FF0063C071F3846C7F83E
:1031B00000C04FF0053C071F3846C7F800C04FF06D
:1031C000043C071F3846C7F800C0F0BD855300080F
:1031D0007FB505460C461248854203D147F25B1085
:1031E00020807FBD0F48854203D147F25C102080CC
:1031F000F7E70D48007800280BDD002000900190D3
:10320000034602462946CDE90204084800F05EFC68
:10321000E7E72146284602F023FB00BFE1E7000074
:1032200010290020D0290020580000205453555365
:1032300010B5FEF7B4FA0446104800681049096852
:10324000884215D00D480068D0F89800201A0B4924
:103250000968C1F8940009480068D0F89C00074943
:103260000968D1F89410084404490968C1F89C0021
:1032700003480068C0F8984010BD0000E800002036
:10328000EC0000202DE9F04105460E4614460027CB
:103290003F480078002804DD47F275202080BDE813
:1032A000F0813C480078002803DD46F6635020801A
:1032B000F5E736B1022E05D0042E0AD0082E09D12A
:1032C00001E000BF00BF1DB947F27E202080E6E785
:1032D00004E003E045F625602080E0E700BF00BF82
:1032E00000BF00BFFCF7A4FF074600BF00BF29488E
:1032F0000078401C2749087000BF00BF3846FCF723
:103300009BFF00BF00BF00BF01202349096881F86F
:1033100036002346324629461F48006802F05CFB0F
:103320002088A8B100BF00BF00BFFCF781FF07469F
:1033300000BF00BF17480078401E1649087000BF44
:1033400000BF3846FCF778FF00BF00BF00BFA6E70C
:103350001148006801F0EAF900BF00BF00BFFCF7A8
:1033600067FF074600BF00BF0A480078401E0949B2
:10337000087000BF00BF3846FCF75EFF00BF00BF0B
:1033800000BFFEF719FF0020208000BF87E7000084
:103390005800002092000020E80000202DE9FF5F87
:1033A00005460E4617469846DDE90EA4002000901B
:1033B00072480078002804DD47F275202080BDE8BF
:1033C000FF9F6F480078002803DD46F66350208099
:1033D000F5E70AF00E0BBBF1000F09D0BBF1020FAD
:1033E00007D0BBF1040F10D0BBF1080F0ED101E0E4
:1033F00000BF00BFB8F1000F06D12FB926B91DB923
:1034000047F27E202080DAE704E003E045F62560FD
:103410002080D4E700BF2AF01E0008B1012000E0A0
:10342000002003900398012803D145F625602080F1
:10343000C5E7CAF3001002900298C0B9B8F57A7FC8
:1034400003D347F27B202080B9E73B2F03DD47F20F
:103450007A202080B3E73B2E03DD47F279202080DD
:10346000ADE7632D12DD47F278202080A7E742F216
:103470000F70864203DD47F2792020809FE7B5F583
:103480007A7F03DB47F27820208098E73D48D0F828
:1034900000904FF4FA70B0FBF9F0404400FB09F0E3
:1034A0004FF47A71B0FBF1F14FF461606843C6EB01
:1034B000061200EB8200384400FB091001900198CD
:1034C000002856D000BF00BF00BFFCF7B1FE00903F
:1034D00000BF00BF2A480078401C2949087000BF7F
:1034E00000BF0098FCF7A8FE00BF00BF00BF01208E
:1034F0002549096881F8360023465A462248019931
:10350000006802F069FA2088A8B100BF00BF00BFC0
:10351000FCF78EFE009000BF00BF19480078401EE7
:103520001749087000BF00BF0098FCF785FE00BF78
:1035300000BF00BF43E71448006801F0F7F800BF80
:1035400000BF00BFFCF774FE009000BF00BF0C4836
:103550000078401E0A49087000BF00BF0098FCF7C1
:103560006BFE00BF00BF00BFFEF726FE00202080DC
:1035700002E047F27E20208000BF20E758000020B4
:1035800092000020A8810008E800002010B586B055
:1035900000F01EF8FEF703F9044605A8002100918B
:1035A000CDE9011403900748007800EB4000064A7B
:1035B00002EB800100231A46044800F087FA06B0A7
:1035C00010BD0000860000209C2A00205449434B77
:1035D0007047000010B5002400BF00BFFCF728FEB4
:1035E000044600BF00BF08480078401C0649087028
:1035F00000BF00BF2046FCF71FFE00BF00BFFFF763
:10360000C5FFFEF767FD10BD58000020244825487F
:103610002548264826482748274828482848294832
:1036200029482A482A482B482B482C482C482D4802
:103630002D482E482E482F482F48304830483148D2
:1036400031483248324833483348344834483548A2
:103650003548364836483748374838483848394872
:1036600039483A483A483B483B483C483C483D4842
:103670003D483E483E483F483F4840484048414812
:1036800041484248424843484348444844484548E2
:103690004548464846484748474800BF70470000ED
:1036A000EC81000854830008EE810008EF810008D7
:1036B000F0810008F4810008F8810008F581000815
:1036C000208200082182000822820008248200084B
:1036D00026820008288200082A8200082C8200081E
:1036E0004C8200084E820008508200085282000876
:1036F000548200085682000858820008848200081C
:103700008582000886820008888200088A82000874
:103710008B8200088C8200088E820008908200084C
:10372000928200089482000896820008988200081D
:10373000C8820008C9820008CA820008CB8200083B
:10374000CC820008CE820008D0820008F8820008EF
:10375000F9820008FA820008FB820008FC82000857
:10376000FE82000800830008048300080583000827
:1037700006830008078300080883000809830008FF
:103780000A8300080B8300080C8300080E830008DE
:103790000F830008108300081283000814830008B8
:1037A00015830008188300084C8300084D83000827
:1037B0004E83000850830008528300080021034A0A
:1037C0001160034A118001807047000070000020E2
:1037D000740000202DE9F04F85B0044688469146DC
:1037E0009A460E9F0020009000BF00BFFCF720FD0E
:1037F000009000BF00BFB9F1000F0AD0B9F1010F6E
:103800000DD0B9F5004F05D06FF40040484460B9C1
:1038100006E000BF206A40EA0800206213E000BF13
:10382000206A20EA080020620DE000BF00BF009877
:10383000FCF702FD00BF00BF45F625603880002080
:1038400005B0BDE8F08F00BFC4F824A004F1080063
:1038500001900198008950B900BF00BF0098FCF7A3
:10386000EBFC00BF00BF00203880206AE8E700BF03
:1038700051480078401C5049087000BF00BF0098B4
:10388000FCF7DAFC00BF00BF00BF01980668B5680E
:1038900061E07068029095F8880000F00F000390D6
:1038A0000398042802D008281DD10EE0206AD5F81C
:1038B000801000EA010BD5F88000584504D152462B
:1038C0005946284600F07CF83FE0206AD5F8801081
:1038D00000EA010BBBF1000F04D0524659462846BE
:1038E00000F06EF831E000BF00BF00BFFCF7A0FCA5
:1038F000009000BF00BF30480078401E2E4908707D
:1039000008460078A0B92D480088002809DD00BFCE
:1039100000BF0098FCF790FC00BF00BF00F034FF30
:103920000DE000BF00BF0098FCF786FC00BF06E07A
:1039300000BF00BF0098FCF77FFC00BF00BF00BFC6
:1039400043F6FF20388000207AE700BF029E0EB1C8
:10395000B56800E00025002D9BD100BF00BF00BF6F
:10396000FCF766FC009000BF00BF13480078401EC3
:103970001149087000BF00BF0098FCF75DFC00BF54
:1039800000BF00BF09F4004008B9FEF715FC00BFF6
:1039900000BFFCF74DFC009000BF00BF206A049000
:1039A00000BF00BF0098FCF747FC00BF00BF00202D
:1039B0003880049844E70000920000206400002052
:1039C00070B504460E4615463434266500206070F6
:1039D0002070E560A078343C082816D2DFE800F0BB
:1039E000040508090706101100BF00BF00BF0DE065
:1039F00000BF204601F018FC002084F8360005E0E6
:103A000000BF042084F8360000E000BF00BF20465D
:103A100000F060FC70BD0000002400BF19E000BF92
:103A200000BFFCF705FC044600BF00BF0948006862
:103A3000401C0849086008480068401C06490860A6
:103A400000BF00BF2046FCF7F7FB00BF00BFFEF73A
:103A50006FFAE4E754000020A800002010B58AB0F7
:103A6000044600200E4908600B2000210591CDE995
:103A70000704069108460B4909680B4A12680B4B6C
:103A80001B68CDE90132CDE903101F200023084A4D
:103A900008A100900C48FEF773FF0AB010BD0000AB
:103AA00054000020508100084C8100084881000823
:103AB000193A000875432F4F532D4949492049644D
:103AC0006C65205461736B00102900202DE9F84FBC
:103AD00004460D4616461F46DDE90BABDDF828907F
:103AE000DDF834800020009000BF00BFFCF7A0FB91
:103AF000009000BF00BF2B4800882B4909888842EE
:103B00003EDA28480088401C26490880274800885B
:103B10000988884203DA2348008824490880244819
:103B20000068046022480068856021480068C6601B
:103B30001F48006807821E480068C0F814901C489F
:103B40000068A0F818A01A480068C0F81CB018480F
:103B50000068406816490860012016490881164827
:103B600008604860002000F083FC1448007818B119
:103B700012480078124908700020A8F8000008E0F8
:103B800010480088401C0F49088044F25360A8F890
:103B9000000000BF00BF0098FCF74EFB00BF00BF55
:103BA000BDE8F88F640000205C81000866000020FA
:103BB0005C0000209C2A0020D029002086000020E4
:103BC00088000020680000203EB559480068006861
:103BD000584A811A904279D00FDC5749084400288E
:103BE0003ED056490844A8B155490844002860D041
:103BF0005449084400286AD13FE05348084400284B
:103C000050D052490844002862D051490844002845
:103C1000F1D110E002A8464D00902D68EB69444DAB
:103C20002D682A8B424D2D686969414D2D68A86821
:103C3000FFF7D0FD7AE002A93D480068C0693C4D1D
:103C4000CDE900012D682B8B394D2D682A8A384D1E
:103C50002D68E968364D2D68A86800F039FC65E0EC
:103C6000334B1B68DA69324B1B68198B304B1B686E
:103C7000986802AB00F042FE58E002A92C480068A8
:103C8000C0692B4DCDE900012D682B8B284D2D6887
:103C90002A8A274D2D68E968254D2D68A86801F00E
:103CA000BDF943E022490968886802A901F0CAFA0F
:103CB0003CE01F4B1B68DA691D4B1B68198B1C4BC2
:103CC0001B68986802AB01F069FB2FE007E02CE06D
:103CD00017490968886802A901F0C2FD26E01D495C
:103CE000097801EB41011C4A02EB810000F07AFDEA
:103CF0000F48006802AB0021C269184801F04EFB72
:103D000017480068401E164908600846006858B900
:103D1000144800680860FDF742FD044602AB2246E5
:103D20000021114801F03AFB00E000BF00BF3EBD9A
:103D3000600000205449434BADBAB2BE0DF90BFAF6
:103D4000F2F8F7FF0006F6FF00F7FDF700FFEFFFC0
:103D500003FE0FFE880000209C2A0020DC2C00209F
:103D6000E4000020E00000209C2D0020002700BF80
:103D70004CE0002648E000BF00BFFCF759FA0746B8
:103D800000BF00BF2248008888B90020214908816F
:103D90000860486000F07EFB00BF00BF3846FCF7BB
:103DA0004BFA00BF00BFFEF707FA01262CE000BF68
:103DB00000BF3846FCF740FA00BF00BFFDF7EFFC3C
:103DC0000546FFF701FFFDF7EAFC441B12480068B7
:103DD000A04201D21048046000BF00BFFCF728FADF
:103DE000074600BF00BF0D48006840680B490860E7
:103DF00007480088401E0649088000BF00BF3846BB
:103E0000FCF71AFA00BF00BF002EB4D0B1E70000E3
:103E1000640000209C2A00206C000020600000202C
:103E2000F0B589B005460020314908803148006866
:103E300020B944F25260288009B0F0BD2E480088B5
:103E4000022803DA44F254602880F5E700202B4969
:103E50000860284804682646203600270CE02848D9
:103E600020600020A060E0602082606120836660A6
:103E700020342036781C87B21F4800888742EEDB4A
:103E8000203C1C48066866601E4806601E480660A6
:103E900000201E4908801E4908801E48006818B985
:103EA00044F255602880C7E71B4800681B49096831
:103EB000884203D244F256602880BDE703200021E7
:103EC0000591CDE90705069113480068144A126868
:103ED000104B1B68CDE90301CDE9013200910B467F
:103EE000104A11A11748FEF74BFD00BFA4E70000E0
:103EF00068000020588100085C8100086C000020E8
:103F00004E4F4E455C000020600000206400002001
:103F100066000020648100086C810008A48100080C
:103F2000688100086D3D000875432F4F532D4949A6
:103F30004920495352205175657565205461736B52
:103F400000000000D02900200021034A1160034A2C
:103F50001180018070470000780000207C00002064
:103F600070B502460B461046114610315E1EB5B2C2
:103F7000002408E00160002646600681C66010301B
:103F80001031661CB4B2AC42F4DB00260660466019
:103F90000681C66070BD000010B504461048006878
:103FA00018B945F21E70208010BD0E48008818B95F
:103FB00045F21D702080F7E70A480188084800682C
:103FC000FFF7CEFF064800680749086005480088EB
:103FD00088800020C8800881208000BFE4E70000BE
:103FE0008881000880810008902A002010B50146D1
:103FF00048894B89002B17DD0A680C4B1B6813603E
:104000000A4C4B6823602346DB884C891B1B074CFA
:10401000E38023469B884C892344044CA3800023DF
:104020004B818B810B604B6010BD0000902A0020FB
:10403000018100224281828102604260704700005B
:104040002DE9F0410D46DDE90674B0F80AC0B0F87C
:104050000880C44505DB46F2935CA4F800C0BDE8C7
:10406000F081DFF8D4C0BCF804C0BCF1000F04D16B
:1040700045F21D7CA4F800C0F1E7DFF8BCC0DCF815
:104080000010DFF8B480D1F800C0C8F800C0C44602
:10409000BCF804C0ACF1010CA8F804C0C446BCF8DC
:1040A00006C00CF1010CA8F806C0C446BCF808C054
:1040B000B8F80680C44507DADFF87CC0BCF806C053
:1040C000DFF87480A8F808C0B0F80AC0BCF1000F8F
:1040D00006D1016041604FF0010CA0F80AC017E062
:1040E00003F0100CBCF1000F07D1066831604FF0EF
:1040F000000CC1F800C0016004E0D0F804C0C1F8B1
:1041000000C04160B0F80AC00CF1010CA0F80AC070
:10411000B0F80CC0B0F80A80C44503DAB0F80AC0A1
:10412000A0F80CC04D600A81CF604FF0000CA4F8DD
:1041300000C000BF93E70000902A00200021034A3E
:104140001160034A11800180704700008000002048
:10415000840000202DE9F04105460C4616461F4616
:104160001548006880F8346000201349096881F818
:10417000350039461048006800F086FE6CB104F145
:104180000808EC60012229460B48006800F016F888
:104190002946404600F06BF806E000200649096811
:1041A000C88705490968086303480168204600F08C
:1041B00019F8BDE8F0810000E800002010B5C287C2
:1041C000016300230AE000244C600C600C614C6128
:1041D0000C83CC61886020315C1CA3B29342F2DB7B
:1041E00010BD000030B548B14568C1F8BC5000F1C1
:1041F0000804226893681D6AC56113E091F8345081
:10420000022D02D0072D08D103E007A5C1F8BC504C
:1042100007E007A5C1F8BC5003E008A5C1F8BC50F1
:1042200000BF00BF30BD00005461736B205100001F
:104230005461736B2053656D000000002000000086
:1042400030B507A5C1F8BC5000F1080422681AB1C6
:1042500093681D6AC56101E001A5C56130BD00001C
:104260002000000000210160416001817047F0B52D
:104270008E6896F8375007893FB9012707810027D4
:104280004F600F600160416023E007897F1C078158
:10429000026806E0946894F83770AF4200DD02E0EF
:1042A0005268002AF6D100BF32B900274F60436838
:1042B0000B60596041600CE017682FB9116000274E
:1042C0000F604A60016004E013680B604A60596047
:1042D0001160F0BD2DE9F0410446256BE68F0AE040
:1042E000D5F80C8008F108072946384600F00AF88E
:1042F0002035701E86B2002EF2DC0020E08720639D
:10430000BDE8F08110B50489012C03D100240460BC
:10431000446011E00C6824B94A680024146002600B
:104320000AE04C6824B90B6800245C60436003E039
:104330000B684A685A6013600489641E0481002473
:104340004C600C6010BD2DE9F84306460C4617463C
:104350009846089D94F83600082850D2DFE800F00F
:104360000405080906072B2C00BF00BF00BF47E06B
:1043700000BF94F83400032807D143463A4621464B
:104380003046009500F03FF803E0E765A4F8608050
:10439000256436B12046FFF79DFF21463046FFF7E2
:1043A0004FFF204600F040FF00203434A0706070C2
:1043B00004F8340924E000BF94F83400032807D13E
:1043C00043463A4621463046009500F01CF803E08B
:1043D000E765A4F860802564204601F0DBFB36B178
:1043E0002046FFF777FF21463046FFF729FF0420DC
:1043F0003434A0700020607004F8340900E000BF7D
:1044000000BFBDE8F883F0B50446059E086BCD8F6C
:104410000AE0C768A74204D1046142610383C66110
:1044200004E020306F1EBDB2002DF2DC00BFF0BDF5
:1044300070B50025074C03E005F12000C5B2241D2E
:1044400020680028F8D02068FBF7FDFE2844C5B29C
:10445000284670BD50000020002004E00021034ADF
:1044600042F82010401C0028F8D07047500000206F
:1044700030B5420900F01F030121C3F11F04A14020
:10448000034C54F822400C43014D45F8224030BD06
:104490005000002030B5420900F01F030121C3F194
:1044A0001F04A140034C54F822408C43014D45F8B1
:1044B000224030BD500000200021034A1160034A11
:1044C00011800180704700008C00002090000020C7
:1044D0002DE9F04F85B007468A4693461C460020DA
:1044E000029000BF00BF00BFFBF7A2FE029000BF1A
:1044F00000BF48480078401C4649087000BF00BF14
:104500000298FBF799FE00BF00BF00BF07F1080645
:104510003089002842D104F0100010B94FF0000893
:1045200001E04FF01008DDE90E0143465A46CDE99F
:104530000001514607F12000FFF782FD00BF00BFD8
:1045400000BFFBF775FE029000BF00BF3148007846
:10455000401E3049087008460078A0B92E480088EF
:10456000002809DD00BF00BF0298FBF765FE00BF11
:1045700000BF00F009F90DE000BF00BF0298FBF793
:104580005BFE00BF06E000BF00BF0298FBF754FED1
:1045900000BF00BF00BF05B0BDE8F08F04F400709D
:1045A00008B1358900E00125D6F8009011E0D9F86E
:1045B00008000390D9F8040004900E985B46524618
:1045C000009038460399FFF7BEFEDDF81090681E94
:1045D00085B2002DEBD100BF00BF00BFFBF728FE66
:1045E000029000BF00BF0B480078401E09490870C8
:1045F00000BF00BF0298FBF71FFE00BF00BF00BF57
:1046000004F4004008B9FDF7D7FD00210F980180A0
:1046100000BFC0E7920000206400002000210AE0F3
:1046200001EB4102054B03EB820000220281026094
:1046300042604A1CD1B22029F2D370479C2A002044
:1046400010B5044694F83700FFF712FF94F83700CE
:1046500005490978884203D1204600F027F802E096
:10466000204600F003F810BD8600002010B590F839
:10467000373003EB43030C4C04EB83010B893BB94C
:1046800001230B810023C36003610860486009E0D7
:104690000B895B1C0B810B68C360002303610A68F4
:1046A0001061086010BD00009C2A002010B590F831
:1046B000373003EB43030B4C04EB83010B893BB90D
:1046C00001230B810023C36003610860486008E098
:1046D0000B895B1C0B810023C3604A680261D060B8
:1046E000486010BD9C2A002010B501460C8924B1F9
:1046F000012C03D0022C0CD101E000BF14E00868AB
:104700004A6802610024C4601461D0600A60486095
:104710000AE008684A68C36800241C61C46002613A
:10472000D0600B60486000BF00BF10BD2DE9F041B4
:10473000054695F8370000EB4000124901EB800474
:104740002F69EE6887B946B900202081206060603B
:1047500095F83700FFF79EFE0EE02089401E20816D
:1047600000203061266007E02089401E2081FE6025
:104770000EB9676000E0376100202861E860BDE89D
:10478000F08100009C2A002010B5002400BFFBF738
:104790004FFD044600BF00200D4908700D480E492A
:1047A000086008460068D0F89000401C0968C1F80D
:1047B00090000A480068401C084908604FF080508B
:1047C0000749086000BF2046FBF736FD00BF10BD5B
:1047D00087000020D0290020EC000020BC00002031
:1047E00004ED00E070B5054600262E48007801284B
:1047F00000D070BD00BF00BFFBF71AFD064600BF2A
:1048000000BF2C683CB900BF00BF3046FBF714FD69
:1048100000BF00BFEDE72448844207D100BF00BFBE
:104820003046FBF709FD00BF00BFE2E7A06D10B105
:10483000A06D401EA065A06D38B100BF00BF30461E
:10484000FBF7FAFC00BF00BFD3E72889022807DA8C
:1048500000BF00BF3046FBF7EFFC00BF00BFC8E75A
:1048600012480078002807DD00BF00BF3046FBF784
:10487000E3FC00BF00BFBCE72846FFF735FF2C680C
:10488000606D18B90A480068A06501E0606DA06518
:1048900000BF00BF3046FBF7CFFC00BF00BF00BF2A
:1048A000A7E70000980000201029002092000020B7
:1048B0009400002009A1C1610021416108490968F3
:1048C00011B90021816105E0054909688161044948
:1048D0000968486102490860704700002000000034
:1048E0009C0000200021034A1160034A11800180CE
:1048F000704700009C000020A00000202DE9FF5F11
:104900000446884691461D460020019000BF00BF26
:10491000FBF78EFC019000BF00BF04F10807388947
:1049200000284FD10420012804D0022814D00428E4
:1049300034D123E0206AFF280DD100BF00BF0198C9
:10494000FBF77AFC00BF00BF46F6C5502880002068
:1049500004B0BDE8F09F22E04FF6FF71206A884264
:104960000BD100BF00BF0198FBF766FC00BF00BF82
:1049700046F6C55028800020EAE710E0206A401C77
:1049800058B900BF00BF0198FBF756FC00BF00BF3D
:1049900046F6C55028800020DAE700E000BF00BFDF
:1049A000206A401C2062D4F820A0C4F8249000BFE4
:1049B00000BF0198FBF740FC00BF00BF002028802B
:1049C0005046C5E700BF25480078401C23490870C1
:1049D00000BF00BF0198FBF72FFC00BF00BF00BF66
:1049E00008F4007008B13E8900E00126D7F800B055
:1049F00011E0DBF808000290DBF8040003900023CC
:104A00001A46CDF8009020460299FFF79CFCDDF88D
:104A10000CB0701E86B2002EEBD1D4F820A000BFDF
:104A200000BF00BFFBF704FC019000BF00BF0B48B4
:104A30000078401E0949087000BF00BF0198FBF7CD
:104A4000FBFB00BF00BF00BF08F4004008B9FDF742
:104A5000B3FB0020288050467AE700009200002037
:104A600086B00020009000BF06E0C34909684800F6
:104A700001AA0021FEF706FCC04800780128F4D105
:104A800001A8FDF76DFE0027BD480068BA49096816
:104A9000884205D9BA480068B7490968B0FBF1F700
:104AA00027B9B74800680A21B0FBF1F762E1FCF7CB
:104AB00076FE804600BF00BFFBF7BAFB009000BF48
:104AC00000BFB0480068B04908600020AD490860E8
:104AD00000BF00BF0098FBF7AFFB00BF00BFAB48B3
:104AE0000068A9490968884248D9A8480068A849C7
:104AF000884205D242F2107003900120029023E018
:104B0000A2480068A349884205D24FF47A70039006
:104B10000A20029018E09D4800689F49884203D20D
:104B20006420039002900FE0984800689B498842F7
:104B300005D20A2003904FF47A70029004E001201D
:104B4000039042F210700290904801680298B1FB05
:104B5000F0FA8D49039809684843B0FBFAF042F235
:104B60001071081A8E4908808E480088098888428A
:104B700008DA8B4800888B49088003E042F2107005
:104B800087490880FDF7FAFE002500BF00BFFBF74C
:104B90004FFB009000BF00BF8348046800BF00BF08
:104BA0000098FBF749FB00BF00BF5AE000BF00BF01
:104BB00000BFFBF73DFB009000BF00BF7B480078C3
:104BC000401C7A49087000BF00BF0098FBF734FB17
:104BD00000BF00BF00BF54F89C0F6060002044F885
:104BE0009C0900BF00BF00BFFBF722FB009000BF85
:104BF00000BF6E480078401E6C4908700846007877
:104C0000A0B96B480088002809DD00BF00BF0098EC
:104C1000FBF712FB00BF00BFFFF7B6FD0DE000BFC2
:104C200000BF0098FBF708FB00BF06E000BF00BF15
:104C30000098FBF701FB00BF00BF00BFD4F8A00045
:104C4000054400BF00BFFBF7F3FA009000BF00BFB0
:104C5000D4F8B84000BF00BF0098FBF7EDFA00BFE2
:104C600000BF002CA2D145B34948854205D242F28B
:104C7000107005904FF0010B1BE04648854205D2AD
:104C80004FF47A7005904FF00A0B12E042488542CB
:104C900003D26420059083460BE04048854204D24D
:104CA0000A2005904FF47A7B03E00120059042F240
:104CB000107BB5FBFBF0049003E000200590012081
:104CC000049000BF00BFFBF7B3FA009000BF00BF25
:104CD0003548046800BF00BF0098FBF7ADFA00BF7D
:104CE00000BF2BE0D4F8A000059948430499B0FB1D
:104CF000F1F086B242F21070864200D90646A4F85E
:104D00008C60B4F88E00B04201DAA4F88E6001AB7A
:104D100004F1AC02111D2046FEF790F900BF00BF60
:104D2000FBF786FA009000BF00BFD4F8B84000BF80
:104D300000BF0098FBF780FA00BF00BF002CD1D164
:104D40001C480078012805D100201A49087001A8E4
:104D5000FDF706FDFCF723FDA0EB080916480068E7
:104D6000484502D21448C0F8009001AA00213846F4
:104D7000FEF788FA9BE6000090810008B40000204E
:104D8000A8810008A8000020B0000020AC0000208E
:104D9000801A060000093D00005A62020084D717FD
:104DA000A4000020A6000020C000002092000020E7
:104DB00064000020A2000020B800002010B58AB0D6
:104DC000044600201F4908601F4908601F49086009
:104DD0001F4908701F4908701F48006820B946F62F
:104DE0002B6020800AB010BD1C4800681C4909686F
:104DF000884203D246F62C602080F3E719480078F9
:104E00001F2803D346F62A602080EBE70320002109
:104E10000591CDE907040691084610490968124A30
:104E200012680D4B1B68CDE90132CDE903100D4826
:104E3000007800230D4A0EA100901248FDF7A0FD56
:104E400000BFCFE7A8000020B0000020AC00002089
:104E5000B4000020A2000020948100089C8100087A
:104E6000A48100088C81000898810008614A00082C
:104E700075432F4F532D4949492053746174205471
:104E800061736B001C2C002038B504460D4685B1BB
:104E90006B4602222946204600F09EFDBDF8000028
:104EA00018B9032084F8360006E0022084F83600A2
:104EB00002E0022084F836002046FFF737FC38BDB8
:104EC0000021C0F8B4100949096819B90021C0F8D7
:104ED000B81007E005490968C0F8B8100349096827
:104EE000C1F8B4000149086070470000C00000200C
:104EF000D0F8B420D0F8B8104AB90D4B196011B1F0
:104F00000023C1F8B4300023C0F8B8300FE029B94D
:104F10000023C2F8B830C0F8B43008E0C2F8B810C6
:104F2000C1F8B4200023C0F8B830C0F8B4307047DE
:104F3000C00000200021044A1160044A1180044A84
:104F40001160018070470000C0000020C4000020F4
:104F5000BC00002070B5044600202060A0606060A6
:104F6000E06020616061A061E06129A02062002012
:104F70006062A062E0622063E0872064E065A4F8DC
:104F80006000002104F16400FFF752F8002044F8AB
:104F9000740F6060E060A0822061743C002506E030
:104FA000002104F17C0040F82510681CC5B2002DDA
:104FB000F6D000203434206120676067606084F898
:104FC0005600E067A06720814FF00040606100203C
:104FD000A061E06120626062A4F85800A4F85A0061
:104FE000E0652066FCF7DBFB064666660020A066EF
:104FF00020706070A0702020E0700020C4F8800055
:10500000C4F8840004A0C4F88800343C70BD0000DB
:105010003F5461736B000000200000002DE9FC4745
:1050200004460F4690469946DDE90A654FF0000AAE
:1050300000BF00BF00BFFBF7FBF8824600BF00BF08
:1050400076480078401C7549087000BF00BF504684
:10505000FBF7F2F800BF00BF00BF0CB9704804684E
:105060000020288094F8360008287DD2DFE800F080
:1050700004053E3F0607404100BF00BF00BF4B464E
:105080004246394604F16400CDE90065FEF7D8FFD9
:1050900000BF00BF00BFFBF7CBF8824600BF00BFD8
:1050A0005E480078401E5D49087008460078A0B947
:1050B0005C480088002809DD00BF00BF5046FBF7B0
:1050C000BBF800BF00BFFFF75FFB0DE000BF00BFF4
:1050D0005046FBF7B1F800BF06E000BF00BF5046E6
:1050E000FBF7AAF800BF00BF00BF93E000BF00BFFE
:1050F00000BF94F83400022821D143463A462146A5
:1051000000200096FFF71FF900BF00BF00BFFBF7AC
:105110008FF8824600BF00BF40480078401E3F49DC
:10512000087000BF00BF5046FBF786F800BF00BF05
:1051300000BF09F4004090BBFDF73EF838E04B4655
:105140004246394604F16400CDE90065FEF778FF78
:1051500000BF00BF00BFFBF76BF8824600BF00BF77
:105160002E480078401E00E023E02C4908700846D5
:105170000078A8B92B480088002809DD00BF00BFCF
:105180005046FBF759F800BF00BFFFF7FDFA0EE0ED
:1051900000BF00BF5046FBF74FF800BF07E007E035
:1051A00000BF00BF5046FBF747F800BF00BF00BF7D
:1051B00030E000BF00BF00BFFBF73AF8824600BFF7
:1051C00000BF16480078401E144908700846007851
:1051D000A0B914480088002809DD00BF00BF504670
:1051E000FBF72AF800BF00BFFFF7CEFA0DE000BFC3
:1051F00000BF5046FBF720F800BF06E000BF00BF2D
:105200005046FBF719F800BF00BF00BF46F62D60FF
:10521000288000BF00BFBDE8FC870000920000208E
:10522000E80000206400002010B50446204600F08D
:10523000B1FC94F8360000F0040010B92046FFF7E6
:10524000FFF910BD70B504460D46002600BF00BF33
:10525000FAF7EEFF064600BF00BF0020288094F852
:10526000360008287BD2DFE800F004050607124369
:10527000556700BF00BF00BF00BF00BF3046FAF750
:10528000DBFF00BF00BF47F25310288072E000BF71
:105290003B480078401C3A49087000BF00BF3046C8
:1052A000FAF7CAFF00BF00BF00BF14F88A0F401E04
:1052B000207014F88A0928B9002084F836002046A6
:1052C000FFF7B2FF00BF00BF00BFFAF7B1FF06460D
:1052D00000BF00BF2A480078401E2949087000BF5F
:1052E00000BF3046FAF7A8FF00BF00BF00BF41E093
:1052F00014F88A0F401E207014F88A0910B9012092
:1053000084F8360000BF00BF3046FAF795FF00BFB3
:1053100000BF2FE014F88A0F401E207014F88A098D
:1053200010B9022084F8360000BF00BF3046FAF7FB
:1053300083FF00BF00BF1DE014F88A0F401E2070DD
:1053400014F88A0910B9032084F8360000BF00BFA2
:105350003046FAF771FF00BF00BF0BE0FFE700BF68
:1053600000BF3046FAF768FF00BF00BF46F62D6069
:10537000288070BD00BFFCF71FFF00BFF9E70000E9
:105380009200002008B504480068FDF74BFD69460F
:105390000020FDF725FC08BDE80000202DE9F843BA
:1053A0000446884617461D464FF0000900BF00BF5F
:1053B00000BFFAF73DFF814600BF00BFFE480078FE
:1053C000401CFD49087000BF00BF4846FAF734FF93
:1053D00000BF00BF00BF0CB9F84804682764002074
:1053E000288094F83600082871D2DFE800F0040520
:1053F000EBEC0607EDEE00BF00BF00BF0420012864
:1054000004D0022839D004286FD170E0606CFF28E6
:1054100032D100BF00BF00BFFAF70AFF814600BFCC
:1054200000BFE5480078401EE34908700846007850
:10543000A0B9E3480088002809DD00BF00BF484646
:10544000FAF7FAFE00BF00BFFFF79EF90DE000BFBC
:1054500000BF4846FAF7F0FE00BF06E000BF00BFFD
:105460004846FAF7E9FE00BF00BF00BF46F6C55048
:1054700028800020BDE8F88371E04FF6FF71606C72
:10548000884233D100BF00BF00BFFAF7D1FE81468A
:1054900000BF00BFC8480078401EC74908700846D2
:1054A0000078A8B9C6480088002809DD00BF00BF01
:1054B0004846FAF7C1FE00BF00BFFFF765F90EE0EE
:1054C00000BF00BF4846FAF7B7FE00BF07E08DE116
:1054D00000BF00BF4846FAF7AFFE00BF00BF00BFE5
:1054E00046F6C55028800020C4E737E037E0606CFE
:1054F000401C88BB00BF00BF00BFFAF799FE814681
:1055000000BF00BFAC480078401EAB490870084699
:105510000078A0B9AA480088002809DD00BF00BFB4
:105520004846FAF789FE00BF00BFFFF72DF90DE0EE
:1055300000BF00BF4846FAF77FFE00BF06E000BF8D
:1055400000BF4846FAF778FE00BF00BF00BF46F62E
:10555000C550288000208DE7FFE700E000BF00BFB6
:10556000606C401C6064666C00BF00BF00BFFAF74F
:105570005FFE814600BF00BF8F480078401E8E4905
:10558000087008460078A0B98D480088002809DD19
:1055900000BF00BF4846FAF74FFE00BF00BFFFF74D
:1055A000F3F80DE000BF00BF4846FAF745FE00BF24
:1055B00006E000BF00BF4846FAF73EFE00BF00BF4E
:1055C00000BF45E100BF00BF00BF94F834000728CA
:1055D00023D100231A46214618460097FEF7B3FE52
:1055E000666C00BF00BF00BFFAF722FE814600BF15
:1055F00000BF71480078401E6F49087000BF00BFAF
:105600004846FAF719FE00BF00BF00BF08F400408B
:10561000002801D1FCF7D0FDE7E00420012804D0E8
:10562000022838D004286ED16EE0606CFF2831D19A
:1056300000BF00BF00BFFAF7FBFD814600BF00BFFF
:105640005D480078401E5C49087008460078A0B9A3
:105650005B480088002809DD00BF00BF4846FAF714
:10566000EBFD00BF00BFFFF78FF80DE000BF00BFEC
:105670004846FAF7E1FD00BF06E000BF00BF48461C
:10568000FAF7DAFD00BF00BF00BF46F6C55028801C
:105690000020EFE670E04FF6FF71606C884231D178
:1056A00000BF00BF00BFFAF7C3FD814600BF00BFC7
:1056B00041480078401E4049087008460078A0B96B
:1056C0003F480088002809DD00BF00BF4846FAF7C0
:1056D000B3FD00BF00BFFFF757F80DE000BF00BFEC
:1056E0004846FAF7A9FD00BF06E000BF00BF4846E4
:1056F000FAF7A2FD00BF00BF00BF46F6C5502880E4
:105700000020B7E638E036E0606C401C88BB00BF84
:1057100000BF00BFFAF78CFD814600BF00BF2648DE
:105720000078401E2449087008460078A0B9244833
:105730000088002809DD00BF00BF4846FAF77CFD5D
:1057400000BF00BFFFF720F80DE000BF00BF4846D4
:10575000FAF772FD00BF06E000BF00BF4846FAF747
:105760006BFD00BF00BF00BF46F6C550288000207B
:1057700080E6FFE700E000BF00BF606C401C606493
:10578000666C00BF00BF00BFFAF752FD814600BF44
:1057900000BF09480078401E074908700846007895
:1057A000D8B907480088002810DD00BF00BF484670
:1057B000FAF742FD00BF05E092000020E80000205B
:1057C0006400002000BFFEF7DFFF0DE000BF00BF58
:1057D0004846FAF731FD00BF06E000BF00BF48466B
:1057E000FAF72AFD00BF00BF00BF31E000BF00BFD5
:1057F00000BFFAF71DFD814600BF00BF16480078C4
:10580000401E1549087008460078A0B91348008862
:10581000002809DD00BF00BF4846FAF70DFD00BFB4
:1058200000BFFEF7B1FF0DE000BF00BF4846FAF72A
:1058300003FD00BF06E000BF00BF4846FAF7FCFCCE
:1058400000BF00BF00BF46F62D602880002600BFC5
:1058500000BF30460EE600009200002064000020E9
:1058600070B504460D46002600BF00BFFAF7E0FC05
:10587000064600BF00BF0CB94B4804684A480068A0
:1058800084420ED14948007800280ADD00BF00BFDD
:105890003046FAF7D1FC00BF00BF46F663502880BF
:1058A00070BD0020288094F8360008286CD2DFE80C
:1058B00000F004313F4D5B5C5D5E00BF3B4800780B
:1058C000401C3A49087000BF00BF3046FAF7B4FCEC
:1058D00000BF00BF00BF042084F83600012084F818
:1058E0008A002046FEF722FF00BF00BF00BFFAF784
:1058F0009FFC064600BF00BF2C480078401E2B4985
:10590000087000BF00BF3046FAF796FC00BF00BF2A
:1059100000BF44E0052084F83600012084F88A00A6
:1059200000BF00BF3046FAF787FC00BF00BF36E07B
:10593000062084F83600012084F88A0000BF00BFEA
:105940003046FAF779FC00BF00BF28E0072084F852
:105950003600012084F88A0000BF00BF3046FAF705
:105960006BFC00BF00BF1AE000BF00BF00BF94F88F
:105970008A00401C84F88A0000BF00BF3046FAF756
:105980005BFC00BF00BF0AE000BF00BF3046FAF773
:1059900053FC00BF00BF46F62D60288080E700BFA3
:1059A000FCF70AFC00BF7BE7E80000209200002023
:1059B000002108E0064A02EBC1000022026082805A
:1059C000C2804A1C91B2034A12889142F2DB7047AE
:1059D00000260020C08100082DE9F04F0C46164635
:1059E0001D46042E1ED1DFF8A091D9F80090A4EB3B
:1059F0000909A9F1010313F5803F0DD94FF0000902
:105A0000C0F84C90C0F85090C0F81C9047F27E2926
:105A1000A5F80090BDE8F08FC46403F10109C0F857
:105A200050903FE084B3082E25D1D0F8489009EB80
:105A30000407DFF85491D9F80090A7EB0909A9F100
:105A40000103A34201D2C76406E0DFF83C91D9F814
:105A50000090A144C0F84C90DFF82CA1D0F84C90F5
:105A6000DAF800A0A9EB0A09C0F85090D0F84C90E1
:105A7000C0F8489016E0DFF81091D9F80090A144E2
:105A8000C0F84C9004650DE0FFE74FF00009C0F846
:105A90004C90C0F85090C0F81C9047F27E29A5F8B1
:105AA0000090B7E7DFF8E4A0BAF800A0D0F84C9077
:105AB000B9FBFAFB0AFB1B991FFA89F8DFF8D090B3
:105AC00009EBC802B2F80490B9F1000F0BD14FF006
:105AD0000009C0F81490C0F8189010604FF0010948
